{
  "contractName": "Notary",
  "abi": [
    {
      "anonymous": false,
      "inputs": [
        {
          "indexed": true,
          "internalType": "bytes32",
          "name": "docHash",
          "type": "bytes32"
        },
        {
          "indexed": true,
          "internalType": "address",
          "name": "signer",
          "type": "address"
        },
        {
          "indexed": true,
          "internalType": "uint256",
          "name": "lastBlock",
          "type": "uint256"
        }
      ],
      "name": "REC",
      "type": "event"
    },
    {
      "constant": true,
      "inputs": [],
      "name": "lastBlockREC",
      "outputs": [
        {
          "internalType": "uint256",
          "name": "",
          "type": "uint256"
        }
      ],
      "payable": false,
      "stateMutability": "view",
      "type": "function"
    },
    {
      "constant": true,
      "inputs": [
        {
          "internalType": "bytes32",
          "name": "",
          "type": "bytes32"
        }
      ],
      "name": "record",
      "outputs": [
        {
          "internalType": "address",
          "name": "",
          "type": "address"
        }
      ],
      "payable": false,
      "stateMutability": "view",
      "type": "function"
    },
    {
      "constant": true,
      "inputs": [],
      "name": "totalRecords",
      "outputs": [
        {
          "internalType": "uint256",
          "name": "",
          "type": "uint256"
        }
      ],
      "payable": false,
      "stateMutability": "view",
      "type": "function"
    },
    {
      "constant": false,
      "inputs": [
        {
          "internalType": "bytes32",
          "name": "docHash",
          "type": "bytes32"
        }
      ],
      "name": "addRecord",
      "outputs": [],
      "payable": false,
      "stateMutability": "nonpayable",
      "type": "function"
    }
  ],
  "bytecode": "0x6080604052600060015534801561001557600080fd5b50610325806100256000396000f3fe608060405234801561001057600080fd5b506004361061004c5760003560e01c8063125f897414610051578063571a1d731461006f5780636584a1c61461009d578063b5c645bd146100bb575b600080fd5b610059610129565b6040518082815260200191505060405180910390f35b61009b6004803603602081101561008557600080fd5b810190808035906020019092919050505061012f565b005b6100a56102b7565b6040518082815260200191505060405180910390f35b6100e7600480360360208110156100d157600080fd5b81019080803590602001909291905050506102bd565b604051808273ffffffffffffffffffffffffffffffffffffffff1673ffffffffffffffffffffffffffffffffffffffff16815260200191505060405180910390f35b60025481565b600073ffffffffffffffffffffffffffffffffffffffff1660008083815260200190815260200160002060009054906101000a900473ffffffffffffffffffffffffffffffffffffffff1673ffffffffffffffffffffffffffffffffffffffff1614610203576040517f08c379a00000000000000000000000000000000000000000000000000000000081526004018080602001828103825260188152602001807f54686973206861736820616c726561647920657869737473000000000000000081525060200191505060405180910390fd5b3360008083815260200190815260200160002060006101000a81548173ffffffffffffffffffffffffffffffffffffffff021916908373ffffffffffffffffffffffffffffffffffffffff1602179055506001543373ffffffffffffffffffffffffffffffffffffffff16827f4bb4fe37a0e5e6287dc03d734ce5412bd6aecea7b409a029b4d7776ad90889e360405160405180910390a44360018190555060026000815480929190600101919050555050565b60015481565b60006020528060005260406000206000915054906101000a900473ffffffffffffffffffffffffffffffffffffffff168156fea265627a7a72315820d53831270f4efd9f200821a4096bf6d90eeeab39f7bc2ef3824e560bbdf1a3d964736f6c63430005100032",
  "source": "pragma solidity ^0.5.8;\n\ncontract Notary {\n  mapping(bytes32 => address) public record;\n  uint public lastBlockREC = 0;\n  uint public totalRecords;\n\n  // Event to record\n  event REC(bytes32 indexed docHash, address indexed signer, uint indexed lastBlock);\n\n  // add a single record\n  function addRecord(bytes32 docHash) public {\n    require(record[docHash] == address(0), \"This hash already exists\");\n\n    record[docHash] = msg.sender;\n    emit REC(docHash, msg.sender, lastBlockREC);\n    lastBlockREC = block.number;\n\n    totalRecords ++;\n  }\n}\n",
  "sourcePath": "/home/ebsi1-operator/1-notarization-uc/smart_contracts/contracts/Notary.sol",
  "compiler": {
    "name": "solc",
    "version": "0.5.16+commit.9c3226ce.Emscripten.clang"
  },
  "schemaVersion": "3.0.23",
  "updatedAt": "2020-02-27T11:15:17.203Z",
  "networkType": "ethereum",
  "devdoc": {
    "methods": {}
  },
  "userdoc": {
    "methods": {}
  }
}